{
  "_format": "hh-sol-artifact-1",
  "contractName": "Comments",
  "sourceName": "contracts/Comments.sol",
  "abi": [
    {
      "anonymous": false,
      "inputs": [
        {
          "components": [
            {
              "internalType": "uint32",
              "name": "id",
              "type": "uint32"
            },
            {
              "internalType": "string",
              "name": "topic",
              "type": "string"
            },
            {
              "internalType": "address",
              "name": "creator_address",
              "type": "address"
            },
            {
              "internalType": "string",
              "name": "message",
              "type": "string"
            },
            {
              "internalType": "uint256",
              "name": "created_at",
              "type": "uint256"
            },
            {
              "internalType": "bool",
              "name": "is_hide",
              "type": "bool"
            }
          ],
          "indexed": false,
          "internalType": "struct Comments.Comment",
          "name": "comment",
          "type": "tuple"
        }
      ],
      "name": "CommentAdded",
      "type": "event"
    },
    {
      "anonymous": false,
      "inputs": [
        {
          "indexed": true,
          "internalType": "address",
          "name": "previousOwner",
          "type": "address"
        },
        {
          "indexed": true,
          "internalType": "address",
          "name": "newOwner",
          "type": "address"
        }
      ],
      "name": "OwnershipTransferred",
      "type": "event"
    },
    {
      "inputs": [
        {
          "internalType": "string",
          "name": "topic",
          "type": "string"
        },
        {
          "internalType": "string",
          "name": "message",
          "type": "string"
        }
      ],
      "name": "addComment",
      "outputs": [],
      "stateMutability": "payable",
      "type": "function"
    },
    {
      "inputs": [
        {
          "internalType": "string",
          "name": "topic",
          "type": "string"
        },
        {
          "internalType": "uint256",
          "name": "index",
          "type": "uint256"
        }
      ],
      "name": "getComment",
      "outputs": [
        {
          "components": [
            {
              "internalType": "uint32",
              "name": "id",
              "type": "uint32"
            },
            {
              "internalType": "string",
              "name": "topic",
              "type": "string"
            },
            {
              "internalType": "address",
              "name": "creator_address",
              "type": "address"
            },
            {
              "internalType": "string",
              "name": "message",
              "type": "string"
            },
            {
              "internalType": "uint256",
              "name": "created_at",
              "type": "uint256"
            },
            {
              "internalType": "bool",
              "name": "is_hide",
              "type": "bool"
            }
          ],
          "internalType": "struct Comments.Comment",
          "name": "",
          "type": "tuple"
        }
      ],
      "stateMutability": "view",
      "type": "function"
    },
    {
      "inputs": [
        {
          "internalType": "string",
          "name": "topic",
          "type": "string"
        }
      ],
      "name": "getComments",
      "outputs": [
        {
          "components": [
            {
              "internalType": "uint32",
              "name": "id",
              "type": "uint32"
            },
            {
              "internalType": "string",
              "name": "topic",
              "type": "string"
            },
            {
              "internalType": "address",
              "name": "creator_address",
              "type": "address"
            },
            {
              "internalType": "string",
              "name": "message",
              "type": "string"
            },
            {
              "internalType": "uint256",
              "name": "created_at",
              "type": "uint256"
            },
            {
              "internalType": "bool",
              "name": "is_hide",
              "type": "bool"
            }
          ],
          "internalType": "struct Comments.Comment[]",
          "name": "",
          "type": "tuple[]"
        }
      ],
      "stateMutability": "view",
      "type": "function"
    },
    {
      "inputs": [
        {
          "internalType": "address",
          "name": "",
          "type": "address"
        }
      ],
      "name": "lastWavedAt",
      "outputs": [
        {
          "internalType": "uint256",
          "name": "",
          "type": "uint256"
        }
      ],
      "stateMutability": "view",
      "type": "function"
    },
    {
      "inputs": [],
      "name": "owner",
      "outputs": [
        {
          "internalType": "address",
          "name": "",
          "type": "address"
        }
      ],
      "stateMutability": "view",
      "type": "function"
    },
    {
      "inputs": [],
      "name": "renounceOwnership",
      "outputs": [],
      "stateMutability": "nonpayable",
      "type": "function"
    },
    {
      "inputs": [
        {
          "internalType": "string",
          "name": "topic",
          "type": "string"
        },
        {
          "internalType": "uint256",
          "name": "index",
          "type": "uint256"
        },
        {
          "internalType": "bool",
          "name": "is_hide",
          "type": "bool"
        }
      ],
      "name": "setHide",
      "outputs": [],
      "stateMutability": "nonpayable",
      "type": "function"
    },
    {
      "inputs": [
        {
          "internalType": "address",
          "name": "newOwner",
          "type": "address"
        }
      ],
      "name": "transferOwnership",
      "outputs": [],
      "stateMutability": "nonpayable",
      "type": "function"
    },
    {
      "inputs": [
        {
          "internalType": "address payable",
          "name": "recipient",
          "type": "address"
        }
      ],
      "name": "withdraw",
      "outputs": [],
      "stateMutability": "nonpayable",
      "type": "function"
    }
  ],
  "bytecode": "0x608060405234801561001057600080fd5b5061002d61002261003260201b60201c565b61003a60201b60201c565b6100fe565b600033905090565b60008060009054906101000a900473ffffffffffffffffffffffffffffffffffffffff169050816000806101000a81548173ffffffffffffffffffffffffffffffffffffffff021916908373ffffffffffffffffffffffffffffffffffffffff1602179055508173ffffffffffffffffffffffffffffffffffffffff168173ffffffffffffffffffffffffffffffffffffffff167f8be0079c531659141344cd1fd0a4f28419497f9722a3daafe3b4186f6b6457e060405160405180910390a35050565b611c198061010d6000396000f3fe6080604052600436106100865760003560e01c80638908cf40116100595780638908cf40146101455780638da5cb5b1461016e578063a42a466314610199578063ae5ff905146101d6578063f2fde38b146101f257610086565b806351cff8d91461008b5780635efda12b146100b457806370c63fcc146100f1578063715018a61461012e575b600080fd5b34801561009757600080fd5b506100b260048036038101906100ad9190611153565b61021b565b005b3480156100c057600080fd5b506100db60048036038101906100d69190611236565b61034d565b6040516100e8919061177b565b60405180910390f35b3480156100fd57600080fd5b506101186004803603810190610113919061117c565b610594565b60405161012591906116b9565b60405180910390f35b34801561013a57600080fd5b506101436107d9565b005b34801561015157600080fd5b5061016c6004803603810190610167919061128e565b610861565b005b34801561017a57600080fd5b50610183610961565b604051610190919061169e565b60405180910390f35b3480156101a557600080fd5b506101c060048036038101906101bb919061112a565b61098a565b6040516101cd919061179d565b60405180910390f35b6101f060048036038101906101eb91906111c1565b6109a2565b005b3480156101fe57600080fd5b506102196004803603810190610214919061112a565b610d69565b005b610223610e61565b73ffffffffffffffffffffffffffffffffffffffff16610241610961565b73ffffffffffffffffffffffffffffffffffffffff1614610297576040517f08c379a000000000000000000000000000000000000000000000000000000000815260040161028e906116fb565b60405180910390fd5b600047905060008273ffffffffffffffffffffffffffffffffffffffff16826040516102c290611689565b60006040518083038185875af1925050503d80600081146102ff576040519150601f19603f3d011682016040523d82523d6000602084013e610304565b606091505b5050905080610348576040517f08c379a000000000000000000000000000000000000000000000000000000000815260040161033f9061171b565b60405180910390fd5b505050565b610355610f2d565b60018484604051610367929190611659565b908152602001604051809103902082815481106103ad577f4e487b7100000000000000000000000000000000000000000000000000000000600052603260045260246000fd5b90600052602060002090600602016040518060c00160405290816000820160009054906101000a900463ffffffff1663ffffffff1663ffffffff1681526020016001820180546103fc9061198c565b80601f01602080910402602001604051908101604052809291908181526020018280546104289061198c565b80156104755780601f1061044a57610100808354040283529160200191610475565b820191906000526020600020905b81548152906001019060200180831161045857829003601f168201915b505050505081526020016002820160009054906101000a900473ffffffffffffffffffffffffffffffffffffffff1673ffffffffffffffffffffffffffffffffffffffff1673ffffffffffffffffffffffffffffffffffffffff1681526020016003820180546104e49061198c565b80601f01602080910402602001604051908101604052809291908181526020018280546105109061198c565b801561055d5780601f106105325761010080835404028352916020019161055d565b820191906000526020600020905b81548152906001019060200180831161054057829003601f168201915b50505050508152602001600482015481526020016005820160009054906101000a900460ff16151515158152505090509392505050565b6060600183836040516105a8929190611659565b9081526020016040518091039020805480602002602001604051908101604052809291908181526020016000905b828210156107cd57838290600052602060002090600602016040518060c00160405290816000820160009054906101000a900463ffffffff1663ffffffff1663ffffffff16815260200160018201805461062f9061198c565b80601f016020809104026020016040519081016040528092919081815260200182805461065b9061198c565b80156106a85780601f1061067d576101008083540402835291602001916106a8565b820191906000526020600020905b81548152906001019060200180831161068b57829003601f168201915b505050505081526020016002820160009054906101000a900473ffffffffffffffffffffffffffffffffffffffff1673ffffffffffffffffffffffffffffffffffffffff1673ffffffffffffffffffffffffffffffffffffffff1681526020016003820180546107179061198c565b80601f01602080910402602001604051908101604052809291908181526020018280546107439061198c565b80156107905780601f1061076557610100808354040283529160200191610790565b820191906000526020600020905b81548152906001019060200180831161077357829003601f168201915b50505050508152602001600482015481526020016005820160009054906101000a900460ff161515151581525050815260200190600101906105d6565b50505050905092915050565b6107e1610e61565b73ffffffffffffffffffffffffffffffffffffffff166107ff610961565b73ffffffffffffffffffffffffffffffffffffffff1614610855576040517f08c379a000000000000000000000000000000000000000000000000000000000815260040161084c906116fb565b60405180910390fd5b61085f6000610e69565b565b610869610e61565b73ffffffffffffffffffffffffffffffffffffffff16610887610961565b73ffffffffffffffffffffffffffffffffffffffff16146108dd576040517f08c379a00000000000000000000000000000000000000000000000000000000081526004016108d4906116fb565b60405180910390fd5b806001846040516108ee9190611672565b90815260200160405180910390208381548110610934577f4e487b7100000000000000000000000000000000000000000000000000000000600052603260045260246000fd5b906000526020600020906006020160050160006101000a81548160ff021916908315150217905550505050565b60008060009054906101000a900473ffffffffffffffffffffffffffffffffffffffff16905090565b60026020528060005260406000206000915090505481565b3273ffffffffffffffffffffffffffffffffffffffff163373ffffffffffffffffffffffffffffffffffffffff1614610a10576040517f08c379a0000000000000000000000000000000000000000000000000000000008152600401610a079061173b565b60405180910390fd5b42610384600260003373ffffffffffffffffffffffffffffffffffffffff1673ffffffffffffffffffffffffffffffffffffffff16815260200190815260200160002054610a5e919061188a565b10610a9e576040517f08c379a0000000000000000000000000000000000000000000000000000000008152600401610a959061175b565b60405180910390fd5b42600260003373ffffffffffffffffffffffffffffffffffffffff1673ffffffffffffffffffffffffffffffffffffffff1681526020019081526020016000208190555060006040518060c00160405280600060149054906101000a900463ffffffff1663ffffffff16815260200186868080601f016020809104026020016040519081016040528093929190818152602001838380828437600081840152601f19601f8201169050808301925050505050505081526020013373ffffffffffffffffffffffffffffffffffffffff16815260200184848080601f016020809104026020016040519081016040528093929190818152602001838380828437600081840152601f19601f82011690508083019250505050505050815260200142815260200160001515815250905060018585604051610bde929190611659565b908152602001604051809103902081908060018154018082558091505060019003906000526020600020906006020160009091909190915060008201518160000160006101000a81548163ffffffff021916908363ffffffff1602179055506020820151816001019080519060200190610c59929190610f81565b5060408201518160020160006101000a81548173ffffffffffffffffffffffffffffffffffffffff021916908373ffffffffffffffffffffffffffffffffffffffff1602179055506060820151816003019080519060200190610cbd929190610f81565b506080820151816004015560a08201518160050160006101000a81548160ff02191690831515021790555050506000601481819054906101000a900463ffffffff1680929190610d0c906119ef565b91906101000a81548163ffffffff021916908363ffffffff160217905550507f90ecd5f23c638c0d43dace178384c710d56a00edb0ca8caf589e7339b47541e881604051610d5a919061177b565b60405180910390a15050505050565b610d71610e61565b73ffffffffffffffffffffffffffffffffffffffff16610d8f610961565b73ffffffffffffffffffffffffffffffffffffffff1614610de5576040517f08c379a0000000000000000000000000000000000000000000000000000000008152600401610ddc906116fb565b60405180910390fd5b600073ffffffffffffffffffffffffffffffffffffffff168173ffffffffffffffffffffffffffffffffffffffff161415610e55576040517f08c379a0000000000000000000000000000000000000000000000000000000008152600401610e4c906116db565b60405180910390fd5b610e5e81610e69565b50565b600033905090565b60008060009054906101000a900473ffffffffffffffffffffffffffffffffffffffff169050816000806101000a81548173ffffffffffffffffffffffffffffffffffffffff021916908373ffffffffffffffffffffffffffffffffffffffff1602179055508173ffffffffffffffffffffffffffffffffffffffff168173ffffffffffffffffffffffffffffffffffffffff167f8be0079c531659141344cd1fd0a4f28419497f9722a3daafe3b4186f6b6457e060405160405180910390a35050565b6040518060c00160405280600063ffffffff16815260200160608152602001600073ffffffffffffffffffffffffffffffffffffffff16815260200160608152602001600081526020016000151581525090565b828054610f8d9061198c565b90600052602060002090601f016020900481019282610faf5760008555610ff6565b82601f10610fc857805160ff1916838001178555610ff6565b82800160010185558215610ff6579182015b82811115610ff5578251825591602001919060010190610fda565b5b5090506110039190611007565b5090565b5b80821115611020576000816000905550600101611008565b5090565b6000611037611032846117dd565b6117b8565b90508281526020810184848401111561104f57600080fd5b61105a84828561194a565b509392505050565b60008135905061107181611b87565b92915050565b60008135905061108681611b9e565b92915050565b60008135905061109b81611bb5565b92915050565b60008083601f8401126110b357600080fd5b8235905067ffffffffffffffff8111156110cc57600080fd5b6020830191508360018202830111156110e457600080fd5b9250929050565b600082601f8301126110fc57600080fd5b813561110c848260208601611024565b91505092915050565b60008135905061112481611bcc565b92915050565b60006020828403121561113c57600080fd5b600061114a84828501611062565b91505092915050565b60006020828403121561116557600080fd5b600061117384828501611077565b91505092915050565b6000806020838503121561118f57600080fd5b600083013567ffffffffffffffff8111156111a957600080fd5b6111b5858286016110a1565b92509250509250929050565b600080600080604085870312156111d757600080fd5b600085013567ffffffffffffffff8111156111f157600080fd5b6111fd878288016110a1565b9450945050602085013567ffffffffffffffff81111561121c57600080fd5b611228878288016110a1565b925092505092959194509250565b60008060006040848603121561124b57600080fd5b600084013567ffffffffffffffff81111561126557600080fd5b611271868287016110a1565b9350935050602061128486828701611115565b9150509250925092565b6000806000606084860312156112a357600080fd5b600084013567ffffffffffffffff8111156112bd57600080fd5b6112c9868287016110eb565b93505060206112da86828701611115565b92505060406112eb8682870161108c565b9150509250925092565b6000611301838361150c565b905092915050565b611312816118e0565b82525050565b611321816118e0565b82525050565b60006113328261181e565b61133c8185611841565b93508360208202850161134e8561180e565b8060005b8581101561138a578484038952815161136b85826112f5565b945061137683611834565b925060208a01995050600181019050611352565b50829750879550505050505092915050565b6113a581611904565b82525050565b60006113b7838561187f565b93506113c483858461194a565b82840190509392505050565b60006113db82611829565b6113e5818561185d565b93506113f5818560208601611959565b6113fe81611aa9565b840191505092915050565b600061141482611829565b61141e818561187f565b935061142e818560208601611959565b80840191505092915050565b600061144760268361186e565b915061145282611aba565b604082019050919050565b600061146a60208361186e565b915061147582611b09565b602082019050919050565b600061148d600083611852565b915061149882611b32565b600082019050919050565b60006114b060008361186e565b91506114bb82611b32565b600082019050919050565b60006114d3600c8361186e565b91506114de82611b35565b602082019050919050565b60006114f660088361186e565b915061150182611b5e565b602082019050919050565b600060c083016000830151611524600086018261164a565b506020830151848203602086015261153c82826113d0565b91505060408301516115516040860182611309565b506060830151848203606086015261156982826113d0565b915050608083015161157e608086018261162c565b5060a083015161159160a086018261139c565b508091505092915050565b600060c0830160008301516115b4600086018261164a565b50602083015184820360208601526115cc82826113d0565b91505060408301516115e16040860182611309565b50606083015184820360608601526115f982826113d0565b915050608083015161160e608086018261162c565b5060a083015161162160a086018261139c565b508091505092915050565b61163581611930565b82525050565b61164481611930565b82525050565b6116538161193a565b82525050565b60006116668284866113ab565b91508190509392505050565b600061167e8284611409565b915081905092915050565b600061169482611480565b9150819050919050565b60006020820190506116b36000830184611318565b92915050565b600060208201905081810360008301526116d38184611327565b905092915050565b600060208201905081810360008301526116f48161143a565b9050919050565b600060208201905081810360008301526117148161145d565b9050919050565b60006020820190508181036000830152611734816114a3565b9050919050565b60006020820190508181036000830152611754816114c6565b9050919050565b60006020820190508181036000830152611774816114e9565b9050919050565b60006020820190508181036000830152611795818461159c565b905092915050565b60006020820190506117b2600083018461163b565b92915050565b60006117c26117d3565b90506117ce82826119be565b919050565b6000604051905090565b600067ffffffffffffffff8211156117f8576117f7611a7a565b5b61180182611aa9565b9050602081019050919050565b6000819050602082019050919050565b600081519050919050565b600081519050919050565b6000602082019050919050565b600082825260208201905092915050565b600081905092915050565b600082825260208201905092915050565b600082825260208201905092915050565b600081905092915050565b600061189582611930565b91506118a083611930565b9250827fffffffffffffffffffffffffffffffffffffffffffffffffffffffffffffffff038211156118d5576118d4611a1c565b5b828201905092915050565b60006118eb82611910565b9050919050565b60006118fd82611910565b9050919050565b60008115159050919050565b600073ffffffffffffffffffffffffffffffffffffffff82169050919050565b6000819050919050565b600063ffffffff82169050919050565b82818337600083830152505050565b60005b8381101561197757808201518184015260208101905061195c565b83811115611986576000848401525b50505050565b600060028204905060018216806119a457607f821691505b602082108114156119b8576119b7611a4b565b5b50919050565b6119c782611aa9565b810181811067ffffffffffffffff821117156119e6576119e5611a7a565b5b80604052505050565b60006119fa8261193a565b915063ffffffff821415611a1157611a10611a1c565b5b600182019050919050565b7f4e487b7100000000000000000000000000000000000000000000000000000000600052601160045260246000fd5b7f4e487b7100000000000000000000000000000000000000000000000000000000600052602260045260246000fd5b7f4e487b7100000000000000000000000000000000000000000000000000000000600052604160045260246000fd5b6000601f19601f8301169050919050565b7f4f776e61626c653a206e6577206f776e657220697320746865207a65726f206160008201527f6464726573730000000000000000000000000000000000000000000000000000602082015250565b7f4f776e61626c653a2063616c6c6572206973206e6f7420746865206f776e6572600082015250565b50565b7f6e6f7420636f6e74726163740000000000000000000000000000000000000000600082015250565b7f576169742031356d000000000000000000000000000000000000000000000000600082015250565b611b90816118e0565b8114611b9b57600080fd5b50565b611ba7816118f2565b8114611bb257600080fd5b50565b611bbe81611904565b8114611bc957600080fd5b50565b611bd581611930565b8114611be057600080fd5b5056fea26469706673582212209758e189949cec210187c372fe1a202d8d62415c2347f88b9c9a59b488f3d81764736f6c63430008040033",
  "linkReferences": {},
  "deployedLinkReferences": {}
}